:100000000C943E000C945B000C945B000C945B0021
:100010000C945B000C945B000C945B000C945B00F4
:100020000C945B000C945B000C945B000C945B00E4
:100030000C945B000C945B000C945B000C945B00D4
:100040000C945B000C945B000C945B000C945B00C4
:100050000C945B000C945B000C945B000C945B00B4
:100060000C945B000C945B000C945B000C945B00A4
:100070000C945B000C945B000C945B0011241FBE7D
:10008000CFEFD0E1DEBFCDBF11E0A0E0B1E0EEEFF9
:10009000F1E002C005900D92A030B107D9F711E050
:1000A000A0E0B1E001C01D92A730B107E1F70E94C6
:1000B0005D000C94FD000C940000279A2F9AE1EC4F
:1000C000F0E0808188618083E2ECF0E080818660EE
:1000D00080831092C5008DE48093C4000E94A80024
:1000E0007894C0ECD0E001E011E00F2EF6ECEF2E9A
:1000F000FF24F02D0F2EF2E0AF2EF1E0BF2EF02DF9
:1001000065010894C108D10888818823ECF7F801BB
:100110008081882351F0F7018081F5018083C60139
:100120000E94BB00F6011082EFCFF7018081F80139
:10013000808388234CF3813011F42F9803C08230E0
:1001400009F42F9AC8010E94BB00F8011082DCCF8D
:10015000089A109A84B5826084BD88E787BD8FE7CE
:100160009FE4A2E181509040A040E1F700C0000070
:10017000209A28980895FC01109885B5887F85BD40
:1001800083B5816083BD16BC000085B5826085BDE6
:10019000A99AA99BFECFA99A27E0808190E0022E20
:1001A00002C0959587950A94E2F780FF02C0109AE5
:1001B00001C01098A99BFECFA99A215070F78081A9
:1001C00088239CF427E0818190E0022E02C095955F
:1001D00087950A94E2F780FF02C0109A01C0109838
:1001E000A99BFECFA99A215070F7109A83E893E05B
:0E01F0000197F1F700C000000895F894FFCFCA
:00000001FF
