
MANpWinker.elf:     file format elf32-avr

Sections:
Idx Name          Size      VMA       LMA       File off  Algn
  0 .text         000003ea  00000000  00000000  00000094  2**1
                  CONTENTS, ALLOC, LOAD, READONLY, CODE
  1 .data         00000004  00800060  000003ea  0000047e  2**0
                  CONTENTS, ALLOC, LOAD, DATA
  2 .bss          00000025  00800064  00800064  00000482  2**0
                  ALLOC
  3 .stab         00000840  00000000  00000000  00000484  2**2
                  CONTENTS, READONLY, DEBUGGING
  4 .stabstr      0000014b  00000000  00000000  00000cc4  2**0
                  CONTENTS, READONLY, DEBUGGING
  5 .debug_aranges 000000a0  00000000  00000000  00000e10  2**3
                  CONTENTS, READONLY, DEBUGGING
  6 .debug_info   00000769  00000000  00000000  00000eb0  2**0
                  CONTENTS, READONLY, DEBUGGING
  7 .debug_abbrev 000002a4  00000000  00000000  00001619  2**0
                  CONTENTS, READONLY, DEBUGGING
  8 .debug_line   00000510  00000000  00000000  000018bd  2**0
                  CONTENTS, READONLY, DEBUGGING
  9 .debug_frame  00000084  00000000  00000000  00001dd0  2**2
                  CONTENTS, READONLY, DEBUGGING
 10 .debug_str    0000021b  00000000  00000000  00001e54  2**0
                  CONTENTS, READONLY, DEBUGGING
 11 .debug_loc    000000df  00000000  00000000  0000206f  2**0
                  CONTENTS, READONLY, DEBUGGING
 12 .debug_ranges 00000018  00000000  00000000  0000214e  2**0
                  CONTENTS, READONLY, DEBUGGING

Disassembly of section .text:

00000000 <__vectors>:
   0:	0e c0       	rjmp	.+28     	; 0x1e <__ctors_end>
   2:	28 c0       	rjmp	.+80     	; 0x54 <__bad_interrupt>
   4:	27 c0       	rjmp	.+78     	; 0x54 <__bad_interrupt>
   6:	26 c0       	rjmp	.+76     	; 0x54 <__bad_interrupt>
   8:	25 c0       	rjmp	.+74     	; 0x54 <__bad_interrupt>
   a:	24 c0       	rjmp	.+72     	; 0x54 <__bad_interrupt>
   c:	23 c0       	rjmp	.+70     	; 0x54 <__bad_interrupt>
   e:	22 c0       	rjmp	.+68     	; 0x54 <__bad_interrupt>
  10:	21 c0       	rjmp	.+66     	; 0x54 <__bad_interrupt>
  12:	20 c0       	rjmp	.+64     	; 0x54 <__bad_interrupt>
  14:	1f c0       	rjmp	.+62     	; 0x54 <__bad_interrupt>
  16:	1e c0       	rjmp	.+60     	; 0x54 <__bad_interrupt>
  18:	1d c0       	rjmp	.+58     	; 0x54 <__bad_interrupt>
  1a:	1c c0       	rjmp	.+56     	; 0x54 <__bad_interrupt>
  1c:	1b c0       	rjmp	.+54     	; 0x54 <__bad_interrupt>

0000001e <__ctors_end>:
  1e:	11 24       	eor	r1, r1
  20:	1f be       	out	0x3f, r1	; 63
  22:	cf e5       	ldi	r28, 0x5F	; 95
  24:	d2 e0       	ldi	r29, 0x02	; 2
  26:	de bf       	out	0x3e, r29	; 62
  28:	cd bf       	out	0x3d, r28	; 61

0000002a <__do_copy_data>:
  2a:	10 e0       	ldi	r17, 0x00	; 0
  2c:	a0 e6       	ldi	r26, 0x60	; 96
  2e:	b0 e0       	ldi	r27, 0x00	; 0
  30:	ea ee       	ldi	r30, 0xEA	; 234
  32:	f3 e0       	ldi	r31, 0x03	; 3
  34:	02 c0       	rjmp	.+4      	; 0x3a <__CCP__+0x6>
  36:	05 90       	lpm	r0, Z+
  38:	0d 92       	st	X+, r0
  3a:	a4 36       	cpi	r26, 0x64	; 100
  3c:	b1 07       	cpc	r27, r17
  3e:	d9 f7       	brne	.-10     	; 0x36 <__CCP__+0x2>

00000040 <__do_clear_bss>:
  40:	10 e0       	ldi	r17, 0x00	; 0
  42:	a4 e6       	ldi	r26, 0x64	; 100
  44:	b0 e0       	ldi	r27, 0x00	; 0
  46:	01 c0       	rjmp	.+2      	; 0x4a <.do_clear_bss_start>

00000048 <.do_clear_bss_loop>:
  48:	1d 92       	st	X+, r1

0000004a <.do_clear_bss_start>:
  4a:	a9 38       	cpi	r26, 0x89	; 137
  4c:	b1 07       	cpc	r27, r17
  4e:	e1 f7       	brne	.-8      	; 0x48 <.do_clear_bss_loop>
  50:	80 d0       	rcall	.+256    	; 0x152 <main>
  52:	c9 c1       	rjmp	.+914    	; 0x3e6 <_exit>

00000054 <__bad_interrupt>:
  54:	d5 cf       	rjmp	.-86     	; 0x0 <__vectors>

00000056 <winkerConfigure>:
}

void winkerConfigure(void) {
	// Detect jumper configuration for left or right winker
	// Jumper closed will indicate right blinker
	DDRB &= ~(1<<DDB0); // PB0 is input
  56:	b8 98       	cbi	0x17, 0	; 23
	PORTB |= (1<<PB0); // Enable pull-up resistor for a clean reading
  58:	c0 9a       	sbi	0x18, 0	; 24
	#else
		//round up by default
		__ticks_dc = (uint32_t)(ceil(fabs(__tmp)));
	#endif

	__builtin_avr_delay_cycles(__ticks_dc);
  5a:	8b e2       	ldi	r24, 0x2B	; 43
  5c:	91 e0       	ldi	r25, 0x01	; 1
  5e:	01 97       	sbiw	r24, 0x01	; 1
  60:	f1 f7       	brne	.-4      	; 0x5e <winkerConfigure+0x8>
  62:	00 c0       	rjmp	.+0      	; 0x64 <winkerConfigure+0xe>
  64:	00 00       	nop
	_delay_us(100); // Wait for things to stabilize
	
	// Test jumper
	if (PINB & (1<<PB0)) {
  66:	b0 9b       	sbis	0x16, 0	; 22
  68:	06 c0       	rjmp	.+12     	; 0x76 <winkerConfigure+0x20>
		// Reading 1 from internal pull-up, jumper is off, winker is left
		winkerState &= ~(1<<MPWST_RIGHT);
  6a:	80 91 62 00 	lds	r24, 0x0062
  6e:	8b 7f       	andi	r24, 0xFB	; 251
  70:	80 93 62 00 	sts	0x0062, r24
  74:	06 c0       	rjmp	.+12     	; 0x82 <winkerConfigure+0x2c>
		// We'll leave the pull-up enabled for NC pin
	} else {
		// Reading 0 from stronger pull down, jumper is on, winker is right
		winkerState |= (1<<MPWST_RIGHT);
  76:	80 91 62 00 	lds	r24, 0x0062
  7a:	84 60       	ori	r24, 0x04	; 4
  7c:	80 93 62 00 	sts	0x0062, r24
		PORTB &= ~(1<<PB0); // Disable pull-up to save power
  80:	c0 98       	cbi	0x18, 0	; 24
	#else
		//round up by default
		__ticks_dc = (uint32_t)(ceil(fabs(__tmp)));
	#endif

	__builtin_avr_delay_cycles(__ticks_dc);
  82:	8f eb       	ldi	r24, 0xBF	; 191
  84:	97 e2       	ldi	r25, 0x27	; 39
  86:	a9 e0       	ldi	r26, 0x09	; 9
  88:	81 50       	subi	r24, 0x01	; 1
  8a:	90 40       	sbci	r25, 0x00	; 0
  8c:	a0 40       	sbci	r26, 0x00	; 0
  8e:	e1 f7       	brne	.-8      	; 0x88 <winkerConfigure+0x32>
  90:	00 c0       	rjmp	.+0      	; 0x92 <winkerConfigure+0x3c>
  92:	00 00       	nop
	
	// Wait for master to start
	_delay_ms(250);
	
	// PB2 - Data Input
	MPPORT &= ~(1<<MPBIT);
  94:	c2 98       	cbi	0x18, 2	; 24
	MPDDR &= ~(1<<MPBIT);
  96:	ba 98       	cbi	0x17, 2	; 23
	
	// PB1 - PWM Output to emitter FET
	DDRB |= (1<<PB1);
  98:	b9 9a       	sbi	0x17, 1	; 23
	
	TCCR0A |= (3<<WGM00);
  9a:	8a b5       	in	r24, 0x2a	; 42
  9c:	83 60       	ori	r24, 0x03	; 3
  9e:	8a bd       	out	0x2a, r24	; 42
	OCR0B = winkIntensity;
  a0:	80 91 66 00 	lds	r24, 0x0066
  a4:	88 bd       	out	0x28, r24	; 40
	
	// Configure Timer1 for use with MANp, also use for wink timing
	manpConfigTimer1_ATtiny85();
  a6:	82 d1       	rcall	.+772    	; 0x3ac <manpConfigTimer1_ATtiny85>
}
  a8:	08 95       	ret

000000aa <onMessage>:

// Callback for message receipt
void onMessage(mpmsg* msg) {
  aa:	fc 01       	movw	r30, r24
	if (msg->id & MP_VAR_MASK) {
  ac:	80 81       	ld	r24, Z
  ae:	88 23       	and	r24, r24
  b0:	14 f5       	brge	.+68     	; 0xf6 <onMessage+0x4c>
		// Variable write
		if (msg->id == VAR_WINK_INTENSITY) {
  b2:	81 38       	cpi	r24, 0x81	; 129
  b4:	39 f4       	brne	.+14     	; 0xc4 <onMessage+0x1a>
			winkIntensity = msg->val;
  b6:	81 81       	ldd	r24, Z+1	; 0x01
  b8:	80 93 66 00 	sts	0x0066, r24
			OCR0B = winkIntensity;
  bc:	80 91 66 00 	lds	r24, 0x0066
  c0:	88 bd       	out	0x28, r24	; 40
  c2:	13 c0       	rjmp	.+38     	; 0xea <onMessage+0x40>
		} else if (msg->id == VAR_WINK_FREQ) {
  c4:	82 38       	cpi	r24, 0x82	; 130
  c6:	41 f4       	brne	.+16     	; 0xd8 <onMessage+0x2e>
			winkFreq = msg->val;
  c8:	81 81       	ldd	r24, Z+1	; 0x01
  ca:	80 93 61 00 	sts	0x0061, r24
			RESET_WINK;
  ce:	10 92 65 00 	sts	0x0065, r1
  d2:	10 92 64 00 	sts	0x0064, r1
  d6:	09 c0       	rjmp	.+18     	; 0xea <onMessage+0x40>
		} else if (msg->id == VAR_WINK_DC) {
  d8:	83 38       	cpi	r24, 0x83	; 131
  da:	39 f4       	brne	.+14     	; 0xea <onMessage+0x40>
			winkDC = msg->val;
  dc:	81 81       	ldd	r24, Z+1	; 0x01
  de:	80 93 60 00 	sts	0x0060, r24
			RESET_WINK;
  e2:	10 92 65 00 	sts	0x0065, r1
  e6:	10 92 64 00 	sts	0x0064, r1
		}
		
		winkerState |= (1<<MPWST_EEPUP);
  ea:	80 91 62 00 	lds	r24, 0x0062
  ee:	82 60       	ori	r24, 0x02	; 2
  f0:	80 93 62 00 	sts	0x0062, r24
  f4:	08 95       	ret
	} else {
		// State Message
		if ((msg->id == ST_L_WINK_ON && !(winkerState & (1<<MPWST_RIGHT))) || (msg->id == ST_R_WINK_ON && winkerState & (1<<MPWST_RIGHT))) {
  f6:	81 30       	cpi	r24, 0x01	; 1
  f8:	29 f4       	brne	.+10     	; 0x104 <onMessage+0x5a>
  fa:	90 91 62 00 	lds	r25, 0x0062
  fe:	92 ff       	sbrs	r25, 2
 100:	07 c0       	rjmp	.+14     	; 0x110 <onMessage+0x66>
 102:	1b c0       	rjmp	.+54     	; 0x13a <onMessage+0x90>
 104:	83 30       	cpi	r24, 0x03	; 3
 106:	91 f4       	brne	.+36     	; 0x12c <onMessage+0x82>
 108:	80 91 62 00 	lds	r24, 0x0062
 10c:	82 ff       	sbrs	r24, 2
 10e:	20 c0       	rjmp	.+64     	; 0x150 <onMessage+0xa6>
			if (!(winkerState & (1<<MPWST_WINK))) {
 110:	80 91 62 00 	lds	r24, 0x0062
 114:	80 fd       	sbrc	r24, 0
 116:	04 c0       	rjmp	.+8      	; 0x120 <onMessage+0x76>
				RESET_WINK;
 118:	10 92 65 00 	sts	0x0065, r1
 11c:	10 92 64 00 	sts	0x0064, r1
			}
			winkerState |= (1<<MPWST_WINK);
 120:	80 91 62 00 	lds	r24, 0x0062
 124:	81 60       	ori	r24, 0x01	; 1
 126:	80 93 62 00 	sts	0x0062, r24
 12a:	08 95       	ret
		} else if ((msg->id == ST_L_WINK_OFF && !(winkerState & (1<<MPWST_RIGHT))) || (msg->id == ST_R_WINK_OFF && winkerState & (1<<MPWST_RIGHT))) {
 12c:	82 30       	cpi	r24, 0x02	; 2
 12e:	29 f4       	brne	.+10     	; 0x13a <onMessage+0x90>
 130:	80 91 62 00 	lds	r24, 0x0062
 134:	82 ff       	sbrs	r24, 2
 136:	07 c0       	rjmp	.+14     	; 0x146 <onMessage+0x9c>
 138:	08 95       	ret
 13a:	84 30       	cpi	r24, 0x04	; 4
 13c:	49 f4       	brne	.+18     	; 0x150 <onMessage+0xa6>
 13e:	80 91 62 00 	lds	r24, 0x0062
 142:	82 ff       	sbrs	r24, 2
 144:	05 c0       	rjmp	.+10     	; 0x150 <onMessage+0xa6>
			winkerState &= ~(1<<MPWST_WINK);
 146:	80 91 62 00 	lds	r24, 0x0062
 14a:	8e 7f       	andi	r24, 0xFE	; 254
 14c:	80 93 62 00 	sts	0x0062, r24
 150:	08 95       	ret

00000152 <main>:
uint8_t volatile ticks20ms = 0;

int main(void)
{
	// Load parameters from EEPROM
	winkIntensity = eeprom_read_byte(NV_VAR_WINK_INTENSITY);
 152:	82 e0       	ldi	r24, 0x02	; 2
 154:	90 e0       	ldi	r25, 0x00	; 0
 156:	31 d1       	rcall	.+610    	; 0x3ba <__eerd_byte_tn85>
 158:	80 93 66 00 	sts	0x0066, r24
	winkFreq = eeprom_read_byte(NV_VAR_WINK_FREQ);
 15c:	83 e0       	ldi	r24, 0x03	; 3
 15e:	90 e0       	ldi	r25, 0x00	; 0
 160:	2c d1       	rcall	.+600    	; 0x3ba <__eerd_byte_tn85>
 162:	80 93 61 00 	sts	0x0061, r24
	winkDC = eeprom_read_byte(NV_VAR_WINK_DC);
 166:	84 e0       	ldi	r24, 0x04	; 4
 168:	90 e0       	ldi	r25, 0x00	; 0
 16a:	27 d1       	rcall	.+590    	; 0x3ba <__eerd_byte_tn85>
 16c:	80 93 60 00 	sts	0x0060, r24
	
	// Configure winker
	winkerConfigure();
 170:	72 df       	rcall	.-284    	; 0x56 <winkerConfigure>
	
	BTIM_RESET;
 172:	80 b7       	in	r24, 0x30	; 48
 174:	80 7f       	andi	r24, 0xF0	; 240
 176:	80 bf       	out	0x30, r24	; 48
 178:	8c b5       	in	r24, 0x2c	; 44
 17a:	82 60       	ori	r24, 0x02	; 2
 17c:	8c bd       	out	0x2c, r24	; 44
 17e:	1f bc       	out	0x2f, r1	; 47
 180:	00 00       	nop
 182:	80 b7       	in	r24, 0x30	; 48
 184:	84 60       	ori	r24, 0x04	; 4
 186:	80 bf       	out	0x30, r24	; 48
	BTIM_RESET_FLAG;
 188:	88 b7       	in	r24, 0x38	; 56
 18a:	80 64       	ori	r24, 0x40	; 64
 18c:	88 bf       	out	0x38, r24	; 56
 18e:	04 c0       	rjmp	.+8      	; 0x198 <main+0x46>
	
	while(1)
    {
		while (BTIM_NO_FLAG) {
			if (!(MPPIN & (1<<MPBIT))) {
 190:	b2 99       	sbic	0x16, 2	; 22
 192:	02 c0       	rjmp	.+4      	; 0x198 <main+0x46>
				mpmsg* msg = manpReceiveMessage();
 194:	56 d0       	rcall	.+172    	; 0x242 <manpReceiveMessage>
				onMessage(msg);
 196:	89 df       	rcall	.-238    	; 0xaa <onMessage>
	BTIM_RESET;
	BTIM_RESET_FLAG;
	
	while(1)
    {
		while (BTIM_NO_FLAG) {
 198:	08 b6       	in	r0, 0x38	; 56
 19a:	06 fe       	sbrs	r0, 6
 19c:	f9 cf       	rjmp	.-14     	; 0x190 <main+0x3e>
				mpmsg* msg = manpReceiveMessage();
				onMessage(msg);
			}
		}
		
		BTIM_RESET_FLAG;
 19e:	88 b7       	in	r24, 0x38	; 56
 1a0:	80 64       	ori	r24, 0x40	; 64
 1a2:	88 bf       	out	0x38, r24	; 56
		ticks80us += 1;
 1a4:	80 91 65 00 	lds	r24, 0x0065
 1a8:	8f 5f       	subi	r24, 0xFF	; 255
 1aa:	80 93 65 00 	sts	0x0065, r24
		
		if (ticks80us == _20MS_TICKS) {
 1ae:	80 91 65 00 	lds	r24, 0x0065
 1b2:	8a 3f       	cpi	r24, 0xFA	; 250
 1b4:	39 f4       	brne	.+14     	; 0x1c4 <main+0x72>
			ticks20ms += 1;
 1b6:	80 91 64 00 	lds	r24, 0x0064
 1ba:	8f 5f       	subi	r24, 0xFF	; 255
 1bc:	80 93 64 00 	sts	0x0064, r24
			ticks80us = 0;
 1c0:	10 92 65 00 	sts	0x0065, r1
		}
		
		if (winkerState & (1<<MPWST_WINK)) {
 1c4:	80 91 62 00 	lds	r24, 0x0062
 1c8:	80 ff       	sbrs	r24, 0
 1ca:	1c c0       	rjmp	.+56     	; 0x204 <main+0xb2>
			if (ticks20ms < winkDC) {
 1cc:	90 91 64 00 	lds	r25, 0x0064
 1d0:	80 91 60 00 	lds	r24, 0x0060
 1d4:	98 17       	cp	r25, r24
 1d6:	38 f4       	brcc	.+14     	; 0x1e6 <main+0x94>
				PWM_ON;
 1d8:	8a b5       	in	r24, 0x2a	; 42
 1da:	80 62       	ori	r24, 0x20	; 32
 1dc:	8a bd       	out	0x2a, r24	; 42
 1de:	83 b7       	in	r24, 0x33	; 51
 1e0:	83 60       	ori	r24, 0x03	; 3
 1e2:	83 bf       	out	0x33, r24	; 51
 1e4:	06 c0       	rjmp	.+12     	; 0x1f2 <main+0xa0>
			} else {
				PWM_OFF;
 1e6:	8a b5       	in	r24, 0x2a	; 42
 1e8:	8f 7d       	andi	r24, 0xDF	; 223
 1ea:	8a bd       	out	0x2a, r24	; 42
 1ec:	83 b7       	in	r24, 0x33	; 51
 1ee:	8c 7f       	andi	r24, 0xFC	; 252
 1f0:	83 bf       	out	0x33, r24	; 51
			}
			
			if (ticks20ms > winkFreq) {
 1f2:	90 91 64 00 	lds	r25, 0x0064
 1f6:	80 91 61 00 	lds	r24, 0x0061
 1fa:	89 17       	cp	r24, r25
 1fc:	48 f4       	brcc	.+18     	; 0x210 <main+0xbe>
				ticks20ms = 0;
 1fe:	10 92 64 00 	sts	0x0064, r1
 202:	06 c0       	rjmp	.+12     	; 0x210 <main+0xbe>
			}
		} else {
			PWM_OFF;
 204:	8a b5       	in	r24, 0x2a	; 42
 206:	8f 7d       	andi	r24, 0xDF	; 223
 208:	8a bd       	out	0x2a, r24	; 42
 20a:	83 b7       	in	r24, 0x33	; 51
 20c:	8c 7f       	andi	r24, 0xFC	; 252
 20e:	83 bf       	out	0x33, r24	; 51
		}
		
		if (winkerState & (1<<MPWST_EEPUP)) {
 210:	80 91 62 00 	lds	r24, 0x0062
 214:	81 ff       	sbrs	r24, 1
 216:	c0 cf       	rjmp	.-128    	; 0x198 <main+0x46>
			winkerState &= ~(1<<MPWST_EEPUP);
 218:	80 91 62 00 	lds	r24, 0x0062
 21c:	8d 7f       	andi	r24, 0xFD	; 253
 21e:	80 93 62 00 	sts	0x0062, r24
			
			eeprom_write_byte(NV_VAR_WINK_INTENSITY, winkIntensity);
 222:	60 91 66 00 	lds	r22, 0x0066
 226:	82 e0       	ldi	r24, 0x02	; 2
 228:	90 e0       	ldi	r25, 0x00	; 0
 22a:	cf d0       	rcall	.+414    	; 0x3ca <__eewr_byte_tn85>
			eeprom_write_byte(NV_VAR_WINK_FREQ, winkFreq);
 22c:	60 91 61 00 	lds	r22, 0x0061
 230:	83 e0       	ldi	r24, 0x03	; 3
 232:	90 e0       	ldi	r25, 0x00	; 0
 234:	ca d0       	rcall	.+404    	; 0x3ca <__eewr_byte_tn85>
			eeprom_write_byte(NV_VAR_WINK_DC, winkDC);
 236:	60 91 60 00 	lds	r22, 0x0060
 23a:	84 e0       	ldi	r24, 0x04	; 4
 23c:	90 e0       	ldi	r25, 0x00	; 0
 23e:	c5 d0       	rcall	.+394    	; 0x3ca <__eewr_byte_tn85>
 240:	ab cf       	rjmp	.-170    	; 0x198 <main+0x46>

00000242 <manpReceiveMessage>:
uint8_t volatile bitHighReads[16];

mpmsg message;

// Receive a message presuming the data line has just been detected going low
mpmsg* manpReceiveMessage(void) {
 242:	cf 93       	push	r28
 244:	df 93       	push	r29
	// Reset the timer
	BTIM_RESET;
 246:	80 b7       	in	r24, 0x30	; 48
 248:	80 7f       	andi	r24, 0xF0	; 240
 24a:	80 bf       	out	0x30, r24	; 48
 24c:	8c b5       	in	r24, 0x2c	; 44
 24e:	82 60       	ori	r24, 0x02	; 2
 250:	8c bd       	out	0x2c, r24	; 44
 252:	1f bc       	out	0x2f, r1	; 47
 254:	00 00       	nop
 256:	80 b7       	in	r24, 0x30	; 48
 258:	84 60       	ori	r24, 0x04	; 4
 25a:	80 bf       	out	0x30, r24	; 48
	BTIM_RESET_FLAG;
 25c:	88 b7       	in	r24, 0x38	; 56
 25e:	80 64       	ori	r24, 0x40	; 64
 260:	88 bf       	out	0x38, r24	; 56
 262:	80 e0       	ldi	r24, 0x00	; 0
 264:	90 e0       	ldi	r25, 0x00	; 0
	
	// Zero the sampling storage buffer
	for (uint8_t i = 0; i < 16; i++) {
		bitLowReads[i] = 0;
 266:	29 e7       	ldi	r18, 0x79	; 121
 268:	30 e0       	ldi	r19, 0x00	; 0
		bitHighReads[i] = 0;
 26a:	49 e6       	ldi	r20, 0x69	; 105
 26c:	50 e0       	ldi	r21, 0x00	; 0
	BTIM_RESET;
	BTIM_RESET_FLAG;
	
	// Zero the sampling storage buffer
	for (uint8_t i = 0; i < 16; i++) {
		bitLowReads[i] = 0;
 26e:	f9 01       	movw	r30, r18
 270:	e8 0f       	add	r30, r24
 272:	f9 1f       	adc	r31, r25
 274:	10 82       	st	Z, r1
		bitHighReads[i] = 0;
 276:	fa 01       	movw	r30, r20
 278:	e8 0f       	add	r30, r24
 27a:	f9 1f       	adc	r31, r25
 27c:	10 82       	st	Z, r1
 27e:	01 96       	adiw	r24, 0x01	; 1
	// Reset the timer
	BTIM_RESET;
	BTIM_RESET_FLAG;
	
	// Zero the sampling storage buffer
	for (uint8_t i = 0; i < 16; i++) {
 280:	80 31       	cpi	r24, 0x10	; 16
 282:	91 05       	cpc	r25, r1
 284:	a1 f7       	brne	.-24     	; 0x26e <__stack+0xf>
		bitLowReads[i] = 0;
		bitHighReads[i] = 0;
	}
	
	// Wait for a bit length, data starts 1 bit after the line goes low
	while (BTIM_NO_FLAG);
 286:	08 b6       	in	r0, 0x38	; 56
 288:	06 fe       	sbrs	r0, 6
 28a:	fd cf       	rjmp	.-6      	; 0x286 <__stack+0x27>
	BTIM_RESET_FLAG;
 28c:	88 b7       	in	r24, 0x38	; 56
 28e:	80 64       	ori	r24, 0x40	; 64
 290:	88 bf       	out	0x38, r24	; 56
	
	// Begin sampling for id
	for (uint8_t i = 7; i != 255; i--) {
 292:	47 e0       	ldi	r20, 0x07	; 7
		while (BTIM_NO_FLAG) {
			if (MPPIN & (1<<MPBIT)) {
				bitHighReads[i] += 1;
			} else {
				bitLowReads[i] += 1;
 294:	29 e7       	ldi	r18, 0x79	; 121
 296:	30 e0       	ldi	r19, 0x00	; 0
	
	// Begin sampling for id
	for (uint8_t i = 7; i != 255; i--) {
		while (BTIM_NO_FLAG) {
			if (MPPIN & (1<<MPBIT)) {
				bitHighReads[i] += 1;
 298:	89 e6       	ldi	r24, 0x69	; 105
 29a:	90 e0       	ldi	r25, 0x00	; 0
 29c:	0f c0       	rjmp	.+30     	; 0x2bc <__stack+0x5d>
	BTIM_RESET_FLAG;
	
	// Begin sampling for id
	for (uint8_t i = 7; i != 255; i--) {
		while (BTIM_NO_FLAG) {
			if (MPPIN & (1<<MPBIT)) {
 29e:	b2 9b       	sbis	0x16, 2	; 22
 2a0:	07 c0       	rjmp	.+14     	; 0x2b0 <__stack+0x51>
				bitHighReads[i] += 1;
 2a2:	fc 01       	movw	r30, r24
 2a4:	e4 0f       	add	r30, r20
 2a6:	f1 1d       	adc	r31, r1
 2a8:	50 81       	ld	r21, Z
 2aa:	5f 5f       	subi	r21, 0xFF	; 255
 2ac:	50 83       	st	Z, r21
 2ae:	06 c0       	rjmp	.+12     	; 0x2bc <__stack+0x5d>
			} else {
				bitLowReads[i] += 1;
 2b0:	f9 01       	movw	r30, r18
 2b2:	e4 0f       	add	r30, r20
 2b4:	f1 1d       	adc	r31, r1
 2b6:	50 81       	ld	r21, Z
 2b8:	5f 5f       	subi	r21, 0xFF	; 255
 2ba:	50 83       	st	Z, r21
	while (BTIM_NO_FLAG);
	BTIM_RESET_FLAG;
	
	// Begin sampling for id
	for (uint8_t i = 7; i != 255; i--) {
		while (BTIM_NO_FLAG) {
 2bc:	08 b6       	in	r0, 0x38	; 56
 2be:	06 fe       	sbrs	r0, 6
 2c0:	ee cf       	rjmp	.-36     	; 0x29e <__stack+0x3f>
			} else {
				bitLowReads[i] += 1;
			}
		}
		
		BTIM_RESET_FLAG;
 2c2:	58 b7       	in	r21, 0x38	; 56
 2c4:	50 64       	ori	r21, 0x40	; 64
 2c6:	58 bf       	out	0x38, r21	; 56
	// Wait for a bit length, data starts 1 bit after the line goes low
	while (BTIM_NO_FLAG);
	BTIM_RESET_FLAG;
	
	// Begin sampling for id
	for (uint8_t i = 7; i != 255; i--) {
 2c8:	41 50       	subi	r20, 0x01	; 1
 2ca:	c0 f7       	brcc	.-16     	; 0x2bc <__stack+0x5d>
		
		BTIM_RESET_FLAG;
	}
	
	// Quickly determine if first bit was 1, indicating a value to follow
	if (bitHighReads[7] > bitLowReads[7]) {
 2cc:	90 91 70 00 	lds	r25, 0x0070
 2d0:	80 91 80 00 	lds	r24, 0x0080
 2d4:	89 17       	cp	r24, r25
 2d6:	d8 f0       	brcs	.+54     	; 0x30e <__stack+0xaf>
 2d8:	21 c0       	rjmp	.+66     	; 0x31c <__stack+0xbd>
		// Begin sampling for val
		for (uint8_t i = 15; i != 7; i--) {
			while (BTIM_NO_FLAG) {
				if (MPPIN & (1<<MPBIT)) {
 2da:	b2 9b       	sbis	0x16, 2	; 22
 2dc:	07 c0       	rjmp	.+14     	; 0x2ec <__stack+0x8d>
					bitHighReads[i] += 1;
 2de:	fa 01       	movw	r30, r20
 2e0:	e8 0f       	add	r30, r24
 2e2:	f9 1f       	adc	r31, r25
 2e4:	60 81       	ld	r22, Z
 2e6:	6f 5f       	subi	r22, 0xFF	; 255
 2e8:	60 83       	st	Z, r22
 2ea:	06 c0       	rjmp	.+12     	; 0x2f8 <__stack+0x99>
				} else {
					bitLowReads[i] += 1;
 2ec:	f9 01       	movw	r30, r18
 2ee:	e8 0f       	add	r30, r24
 2f0:	f9 1f       	adc	r31, r25
 2f2:	60 81       	ld	r22, Z
 2f4:	6f 5f       	subi	r22, 0xFF	; 255
 2f6:	60 83       	st	Z, r22
	
	// Quickly determine if first bit was 1, indicating a value to follow
	if (bitHighReads[7] > bitLowReads[7]) {
		// Begin sampling for val
		for (uint8_t i = 15; i != 7; i--) {
			while (BTIM_NO_FLAG) {
 2f8:	08 b6       	in	r0, 0x38	; 56
 2fa:	06 fe       	sbrs	r0, 6
 2fc:	ee cf       	rjmp	.-36     	; 0x2da <__stack+0x7b>
				} else {
					bitLowReads[i] += 1;
				}
			}
			
			BTIM_RESET_FLAG;
 2fe:	68 b7       	in	r22, 0x38	; 56
 300:	60 64       	ori	r22, 0x40	; 64
 302:	68 bf       	out	0x38, r22	; 56
 304:	01 97       	sbiw	r24, 0x01	; 1
	}
	
	// Quickly determine if first bit was 1, indicating a value to follow
	if (bitHighReads[7] > bitLowReads[7]) {
		// Begin sampling for val
		for (uint8_t i = 15; i != 7; i--) {
 306:	87 30       	cpi	r24, 0x07	; 7
 308:	91 05       	cpc	r25, r1
 30a:	b1 f7       	brne	.-20     	; 0x2f8 <__stack+0x99>
 30c:	07 c0       	rjmp	.+14     	; 0x31c <__stack+0xbd>
		
		BTIM_RESET_FLAG;
	}
	
	// Quickly determine if first bit was 1, indicating a value to follow
	if (bitHighReads[7] > bitLowReads[7]) {
 30e:	8f e0       	ldi	r24, 0x0F	; 15
 310:	90 e0       	ldi	r25, 0x00	; 0
		for (uint8_t i = 15; i != 7; i--) {
			while (BTIM_NO_FLAG) {
				if (MPPIN & (1<<MPBIT)) {
					bitHighReads[i] += 1;
				} else {
					bitLowReads[i] += 1;
 312:	29 e7       	ldi	r18, 0x79	; 121
 314:	30 e0       	ldi	r19, 0x00	; 0
	if (bitHighReads[7] > bitLowReads[7]) {
		// Begin sampling for val
		for (uint8_t i = 15; i != 7; i--) {
			while (BTIM_NO_FLAG) {
				if (MPPIN & (1<<MPBIT)) {
					bitHighReads[i] += 1;
 316:	49 e6       	ldi	r20, 0x69	; 105
 318:	50 e0       	ldi	r21, 0x00	; 0
 31a:	ee cf       	rjmp	.-36     	; 0x2f8 <__stack+0x99>
		
		BTIM_RESET_FLAG;
	}
	
	// Quickly determine if first bit was 1, indicating a value to follow
	if (bitHighReads[7] > bitLowReads[7]) {
 31c:	b0 e0       	ldi	r27, 0x00	; 0
	
	// Integrate the samples to decode the received waveform
	// Start with id
	message.id = 0;
	
	for (uint8_t i = 7; i != 255; i--) {
 31e:	a7 e0       	ldi	r26, 0x07	; 7
		if (bitHighReads[i] > bitLowReads[i]) {
 320:	29 e6       	ldi	r18, 0x69	; 105
 322:	30 e0       	ldi	r19, 0x00	; 0
 324:	49 e7       	ldi	r20, 0x79	; 121
 326:	50 e0       	ldi	r21, 0x00	; 0
			message.id |= (1<<i);
 328:	61 e0       	ldi	r22, 0x01	; 1
 32a:	70 e0       	ldi	r23, 0x00	; 0
	// Integrate the samples to decode the received waveform
	// Start with id
	message.id = 0;
	
	for (uint8_t i = 7; i != 255; i--) {
		if (bitHighReads[i] > bitLowReads[i]) {
 32c:	8a 2f       	mov	r24, r26
 32e:	90 e0       	ldi	r25, 0x00	; 0
 330:	f9 01       	movw	r30, r18
 332:	e8 0f       	add	r30, r24
 334:	f9 1f       	adc	r31, r25
 336:	e0 81       	ld	r30, Z
 338:	84 0f       	add	r24, r20
 33a:	95 1f       	adc	r25, r21
 33c:	ec 01       	movw	r28, r24
 33e:	88 81       	ld	r24, Y
 340:	8e 17       	cp	r24, r30
 342:	40 f4       	brcc	.+16     	; 0x354 <__stack+0xf5>
			message.id |= (1<<i);
 344:	cb 01       	movw	r24, r22
 346:	0a 2e       	mov	r0, r26
 348:	02 c0       	rjmp	.+4      	; 0x34e <__stack+0xef>
 34a:	88 0f       	add	r24, r24
 34c:	99 1f       	adc	r25, r25
 34e:	0a 94       	dec	r0
 350:	e2 f7       	brpl	.-8      	; 0x34a <__stack+0xeb>
 352:	b8 2b       	or	r27, r24
	
	// Integrate the samples to decode the received waveform
	// Start with id
	message.id = 0;
	
	for (uint8_t i = 7; i != 255; i--) {
 354:	a1 50       	subi	r26, 0x01	; 1
 356:	50 f7       	brcc	.-44     	; 0x32c <__stack+0xcd>
 358:	b0 93 67 00 	sts	0x0067, r27
			message.id |= (1<<i);
		}
	}
	
	// Decode the value if needed
	if (message.id & MP_VAR_MASK) {
 35c:	bb 23       	and	r27, r27
 35e:	0c f5       	brge	.+66     	; 0x3a2 <__stack+0x143>
 360:	50 e0       	ldi	r21, 0x00	; 0
		message.val = 0;
		
		for (uint8_t i = 7; i != 255; i--) {
 362:	47 e0       	ldi	r20, 0x07	; 7
			if (bitHighReads[i + 8] > bitLowReads[i + 8]) {
 364:	29 e6       	ldi	r18, 0x69	; 105
 366:	30 e0       	ldi	r19, 0x00	; 0
 368:	69 e7       	ldi	r22, 0x79	; 121
 36a:	70 e0       	ldi	r23, 0x00	; 0
				message.val |= (1<<i);
 36c:	a1 e0       	ldi	r26, 0x01	; 1
 36e:	b0 e0       	ldi	r27, 0x00	; 0
	// Decode the value if needed
	if (message.id & MP_VAR_MASK) {
		message.val = 0;
		
		for (uint8_t i = 7; i != 255; i--) {
			if (bitHighReads[i + 8] > bitLowReads[i + 8]) {
 370:	84 2f       	mov	r24, r20
 372:	90 e0       	ldi	r25, 0x00	; 0
 374:	08 96       	adiw	r24, 0x08	; 8
 376:	f9 01       	movw	r30, r18
 378:	e8 0f       	add	r30, r24
 37a:	f9 1f       	adc	r31, r25
 37c:	e0 81       	ld	r30, Z
 37e:	86 0f       	add	r24, r22
 380:	97 1f       	adc	r25, r23
 382:	ec 01       	movw	r28, r24
 384:	88 81       	ld	r24, Y
 386:	8e 17       	cp	r24, r30
 388:	40 f4       	brcc	.+16     	; 0x39a <__stack+0x13b>
				message.val |= (1<<i);
 38a:	cd 01       	movw	r24, r26
 38c:	04 2e       	mov	r0, r20
 38e:	02 c0       	rjmp	.+4      	; 0x394 <__stack+0x135>
 390:	88 0f       	add	r24, r24
 392:	99 1f       	adc	r25, r25
 394:	0a 94       	dec	r0
 396:	e2 f7       	brpl	.-8      	; 0x390 <__stack+0x131>
 398:	58 2b       	or	r21, r24
	
	// Decode the value if needed
	if (message.id & MP_VAR_MASK) {
		message.val = 0;
		
		for (uint8_t i = 7; i != 255; i--) {
 39a:	41 50       	subi	r20, 0x01	; 1
 39c:	48 f7       	brcc	.-46     	; 0x370 <__stack+0x111>
 39e:	50 93 68 00 	sts	0x0068, r21
			}
		}
	}
	
	return &message;
}
 3a2:	87 e6       	ldi	r24, 0x67	; 103
 3a4:	90 e0       	ldi	r25, 0x00	; 0
 3a6:	df 91       	pop	r29
 3a8:	cf 91       	pop	r28
 3aa:	08 95       	ret

000003ac <manpConfigTimer1_ATtiny85>:

// Configure Timer for 80us interrupts, Timer1 - ATTiny85
void manpConfigTimer1_ATtiny85(void) {
	TCCR1 |= (1<<CTC1); // Clear on match of OCR1C
 3ac:	80 b7       	in	r24, 0x30	; 48
 3ae:	80 68       	ori	r24, 0x80	; 128
 3b0:	80 bf       	out	0x30, r24	; 48
	OCR1A = BTIM_MATCH; // Match for interrupt at 80us
 3b2:	88 e7       	ldi	r24, 0x78	; 120
 3b4:	8e bd       	out	0x2e, r24	; 46
	OCR1C = BTIM_MATCH; // Match for reset at 80us
 3b6:	8d bd       	out	0x2d, r24	; 45
 3b8:	08 95       	ret

000003ba <__eerd_byte_tn85>:
 3ba:	e1 99       	sbic	0x1c, 1	; 28
 3bc:	fe cf       	rjmp	.-4      	; 0x3ba <__eerd_byte_tn85>
 3be:	9f bb       	out	0x1f, r25	; 31
 3c0:	8e bb       	out	0x1e, r24	; 30
 3c2:	e0 9a       	sbi	0x1c, 0	; 28
 3c4:	99 27       	eor	r25, r25
 3c6:	8d b3       	in	r24, 0x1d	; 29
 3c8:	08 95       	ret

000003ca <__eewr_byte_tn85>:
 3ca:	26 2f       	mov	r18, r22

000003cc <__eewr_r18_tn85>:
 3cc:	e1 99       	sbic	0x1c, 1	; 28
 3ce:	fe cf       	rjmp	.-4      	; 0x3cc <__eewr_r18_tn85>
 3d0:	1c ba       	out	0x1c, r1	; 28
 3d2:	9f bb       	out	0x1f, r25	; 31
 3d4:	8e bb       	out	0x1e, r24	; 30
 3d6:	2d bb       	out	0x1d, r18	; 29
 3d8:	0f b6       	in	r0, 0x3f	; 63
 3da:	f8 94       	cli
 3dc:	e2 9a       	sbi	0x1c, 2	; 28
 3de:	e1 9a       	sbi	0x1c, 1	; 28
 3e0:	0f be       	out	0x3f, r0	; 63
 3e2:	01 96       	adiw	r24, 0x01	; 1
 3e4:	08 95       	ret

000003e6 <_exit>:
 3e6:	f8 94       	cli

000003e8 <__stop_program>:
 3e8:	ff cf       	rjmp	.-2      	; 0x3e8 <__stop_program>
